{
  "contractName": "BookingToken",
  "abi": [
    {
      "inputs": [],
      "payable": false,
      "stateMutability": "nonpayable",
      "type": "constructor"
    },
    {
      "anonymous": false,
      "inputs": [
        {
          "indexed": true,
          "internalType": "address",
          "name": "owner",
          "type": "address"
        },
        {
          "indexed": true,
          "internalType": "address",
          "name": "approved",
          "type": "address"
        },
        {
          "indexed": true,
          "internalType": "uint256",
          "name": "tokenId",
          "type": "uint256"
        }
      ],
      "name": "Approval",
      "type": "event"
    },
    {
      "anonymous": false,
      "inputs": [
        {
          "indexed": true,
          "internalType": "address",
          "name": "owner",
          "type": "address"
        },
        {
          "indexed": true,
          "internalType": "address",
          "name": "operator",
          "type": "address"
        },
        {
          "indexed": false,
          "internalType": "bool",
          "name": "approved",
          "type": "bool"
        }
      ],
      "name": "ApprovalForAll",
      "type": "event"
    },
    {
      "anonymous": false,
      "inputs": [
        {
          "indexed": true,
          "internalType": "address",
          "name": "previousOwner",
          "type": "address"
        },
        {
          "indexed": true,
          "internalType": "address",
          "name": "newOwner",
          "type": "address"
        }
      ],
      "name": "OwnershipTransferred",
      "type": "event"
    },
    {
      "anonymous": false,
      "inputs": [
        {
          "indexed": true,
          "internalType": "address",
          "name": "from",
          "type": "address"
        },
        {
          "indexed": true,
          "internalType": "address",
          "name": "to",
          "type": "address"
        },
        {
          "indexed": true,
          "internalType": "uint256",
          "name": "tokenId",
          "type": "uint256"
        }
      ],
      "name": "Transfer",
      "type": "event"
    },
    {
      "constant": true,
      "inputs": [],
      "name": "_name",
      "outputs": [
        {
          "internalType": "string",
          "name": "",
          "type": "string"
        }
      ],
      "payable": false,
      "stateMutability": "view",
      "type": "function"
    },
    {
      "constant": true,
      "inputs": [
        {
          "internalType": "uint256",
          "name": "",
          "type": "uint256"
        }
      ],
      "name": "_stocks",
      "outputs": [
        {
          "internalType": "address",
          "name": "hotel",
          "type": "address"
        },
        {
          "internalType": "uint256",
          "name": "roomId",
          "type": "uint256"
        },
        {
          "internalType": "uint16",
          "name": "year",
          "type": "uint16"
        },
        {
          "internalType": "uint8",
          "name": "month",
          "type": "uint8"
        },
        {
          "internalType": "uint8",
          "name": "day",
          "type": "uint8"
        },
        {
          "internalType": "bool",
          "name": "status",
          "type": "bool"
        }
      ],
      "payable": false,
      "stateMutability": "view",
      "type": "function"
    },
    {
      "constant": true,
      "inputs": [],
      "name": "_symbol",
      "outputs": [
        {
          "internalType": "string",
          "name": "",
          "type": "string"
        }
      ],
      "payable": false,
      "stateMutability": "view",
      "type": "function"
    },
    {
      "constant": false,
      "inputs": [
        {
          "internalType": "address",
          "name": "to",
          "type": "address"
        },
        {
          "internalType": "uint256",
          "name": "tokenId",
          "type": "uint256"
        }
      ],
      "name": "approve",
      "outputs": [],
      "payable": false,
      "stateMutability": "nonpayable",
      "type": "function"
    },
    {
      "constant": true,
      "inputs": [
        {
          "internalType": "address",
          "name": "owner",
          "type": "address"
        }
      ],
      "name": "balanceOf",
      "outputs": [
        {
          "internalType": "uint256",
          "name": "",
          "type": "uint256"
        }
      ],
      "payable": false,
      "stateMutability": "view",
      "type": "function"
    },
    {
      "constant": true,
      "inputs": [
        {
          "internalType": "uint256",
          "name": "tokenId",
          "type": "uint256"
        }
      ],
      "name": "getApproved",
      "outputs": [
        {
          "internalType": "address",
          "name": "",
          "type": "address"
        }
      ],
      "payable": false,
      "stateMutability": "view",
      "type": "function"
    },
    {
      "constant": true,
      "inputs": [
        {
          "internalType": "address",
          "name": "owner",
          "type": "address"
        },
        {
          "internalType": "address",
          "name": "operator",
          "type": "address"
        }
      ],
      "name": "isApprovedForAll",
      "outputs": [
        {
          "internalType": "bool",
          "name": "",
          "type": "bool"
        }
      ],
      "payable": false,
      "stateMutability": "view",
      "type": "function"
    },
    {
      "constant": true,
      "inputs": [],
      "name": "isOwner",
      "outputs": [
        {
          "internalType": "bool",
          "name": "",
          "type": "bool"
        }
      ],
      "payable": false,
      "stateMutability": "view",
      "type": "function"
    },
    {
      "constant": true,
      "inputs": [],
      "name": "name",
      "outputs": [
        {
          "internalType": "string",
          "name": "",
          "type": "string"
        }
      ],
      "payable": false,
      "stateMutability": "view",
      "type": "function"
    },
    {
      "constant": true,
      "inputs": [],
      "name": "owner",
      "outputs": [
        {
          "internalType": "address",
          "name": "",
          "type": "address"
        }
      ],
      "payable": false,
      "stateMutability": "view",
      "type": "function"
    },
    {
      "constant": true,
      "inputs": [
        {
          "internalType": "uint256",
          "name": "tokenId",
          "type": "uint256"
        }
      ],
      "name": "ownerOf",
      "outputs": [
        {
          "internalType": "address",
          "name": "",
          "type": "address"
        }
      ],
      "payable": false,
      "stateMutability": "view",
      "type": "function"
    },
    {
      "constant": false,
      "inputs": [],
      "name": "renounceOwnership",
      "outputs": [],
      "payable": false,
      "stateMutability": "nonpayable",
      "type": "function"
    },
    {
      "constant": false,
      "inputs": [
        {
          "internalType": "address",
          "name": "from",
          "type": "address"
        },
        {
          "internalType": "address",
          "name": "to",
          "type": "address"
        },
        {
          "internalType": "uint256",
          "name": "tokenId",
          "type": "uint256"
        }
      ],
      "name": "safeTransferFrom",
      "outputs": [],
      "payable": false,
      "stateMutability": "nonpayable",
      "type": "function"
    },
    {
      "constant": false,
      "inputs": [
        {
          "internalType": "address",
          "name": "from",
          "type": "address"
        },
        {
          "internalType": "address",
          "name": "to",
          "type": "address"
        },
        {
          "internalType": "uint256",
          "name": "tokenId",
          "type": "uint256"
        },
        {
          "internalType": "bytes",
          "name": "_data",
          "type": "bytes"
        }
      ],
      "name": "safeTransferFrom",
      "outputs": [],
      "payable": false,
      "stateMutability": "nonpayable",
      "type": "function"
    },
    {
      "constant": false,
      "inputs": [
        {
          "internalType": "address",
          "name": "to",
          "type": "address"
        },
        {
          "internalType": "bool",
          "name": "approved",
          "type": "bool"
        }
      ],
      "name": "setApprovalForAll",
      "outputs": [],
      "payable": false,
      "stateMutability": "nonpayable",
      "type": "function"
    },
    {
      "constant": true,
      "inputs": [
        {
          "internalType": "bytes4",
          "name": "interfaceId",
          "type": "bytes4"
        }
      ],
      "name": "supportsInterface",
      "outputs": [
        {
          "internalType": "bool",
          "name": "",
          "type": "bool"
        }
      ],
      "payable": false,
      "stateMutability": "view",
      "type": "function"
    },
    {
      "constant": true,
      "inputs": [],
      "name": "symbol",
      "outputs": [
        {
          "internalType": "string",
          "name": "",
          "type": "string"
        }
      ],
      "payable": false,
      "stateMutability": "view",
      "type": "function"
    },
    {
      "constant": true,
      "inputs": [
        {
          "internalType": "uint256",
          "name": "index",
          "type": "uint256"
        }
      ],
      "name": "tokenByIndex",
      "outputs": [
        {
          "internalType": "uint256",
          "name": "",
          "type": "uint256"
        }
      ],
      "payable": false,
      "stateMutability": "view",
      "type": "function"
    },
    {
      "constant": true,
      "inputs": [
        {
          "internalType": "address",
          "name": "owner",
          "type": "address"
        },
        {
          "internalType": "uint256",
          "name": "index",
          "type": "uint256"
        }
      ],
      "name": "tokenOfOwnerByIndex",
      "outputs": [
        {
          "internalType": "uint256",
          "name": "",
          "type": "uint256"
        }
      ],
      "payable": false,
      "stateMutability": "view",
      "type": "function"
    },
    {
      "constant": true,
      "inputs": [],
      "name": "totalSupply",
      "outputs": [
        {
          "internalType": "uint256",
          "name": "",
          "type": "uint256"
        }
      ],
      "payable": false,
      "stateMutability": "view",
      "type": "function"
    },
    {
      "constant": false,
      "inputs": [
        {
          "internalType": "address",
          "name": "from",
          "type": "address"
        },
        {
          "internalType": "address",
          "name": "to",
          "type": "address"
        },
        {
          "internalType": "uint256",
          "name": "tokenId",
          "type": "uint256"
        }
      ],
      "name": "transferFrom",
      "outputs": [],
      "payable": false,
      "stateMutability": "nonpayable",
      "type": "function"
    },
    {
      "constant": false,
      "inputs": [
        {
          "internalType": "address",
          "name": "newOwner",
          "type": "address"
        }
      ],
      "name": "transferOwnership",
      "outputs": [],
      "payable": false,
      "stateMutability": "nonpayable",
      "type": "function"
    },
    {
      "constant": true,
      "inputs": [
        {
          "internalType": "address",
          "name": "_to",
          "type": "address"
        }
      ],
      "name": "mintTo",
      "outputs": [
        {
          "internalType": "uint256",
          "name": "tokenId",
          "type": "uint256"
        }
      ],
      "payable": false,
      "stateMutability": "view",
      "type": "function"
    },
    {
      "constant": true,
      "inputs": [
        {
          "internalType": "uint256",
          "name": "tokenId",
          "type": "uint256"
        }
      ],
      "name": "getTokenInformation",
      "outputs": [
        {
          "internalType": "address",
          "name": "hotel",
          "type": "address"
        },
        {
          "internalType": "uint256",
          "name": "roomId",
          "type": "uint256"
        },
        {
          "internalType": "uint16",
          "name": "year",
          "type": "uint16"
        },
        {
          "internalType": "uint8",
          "name": "month",
          "type": "uint8"
        },
        {
          "internalType": "uint8",
          "name": "day",
          "type": "uint8"
        },
        {
          "internalType": "bool",
          "name": "status",
          "type": "bool"
        }
      ],
      "payable": false,
      "stateMutability": "view",
      "type": "function"
    },
    {
      "constant": false,
      "inputs": [
        {
          "internalType": "address",
          "name": "hotelAddress",
          "type": "address"
        }
      ],
      "name": "registHotelAddress",
      "outputs": [],
      "payable": false,
      "stateMutability": "nonpayable",
      "type": "function"
    },
    {
      "constant": true,
      "inputs": [
        {
          "internalType": "address",
          "name": "hotelAddress",
          "type": "address"
        }
      ],
      "name": "checkHotelAddress",
      "outputs": [
        {
          "internalType": "bool",
          "name": "",
          "type": "bool"
        }
      ],
      "payable": false,
      "stateMutability": "view",
      "type": "function"
    },
    {
      "constant": false,
      "inputs": [
        {
          "internalType": "uint256",
          "name": "_tokenId",
          "type": "uint256"
        },
        {
          "internalType": "bool",
          "name": "_status",
          "type": "bool"
        }
      ],
      "name": "changeStockStatus",
      "outputs": [],
      "payable": false,
      "stateMutability": "nonpayable",
      "type": "function"
    },
    {
      "constant": true,
      "inputs": [
        {
          "internalType": "uint256",
          "name": "_tokenId",
          "type": "uint256"
        }
      ],
      "name": "getStockStatus",
      "outputs": [
        {
          "internalType": "bool",
          "name": "",
          "type": "bool"
        }
      ],
      "payable": false,
      "stateMutability": "view",
      "type": "function"
    },
    {
      "constant": false,
      "inputs": [
        {
          "internalType": "uint256",
          "name": "_tokenId",
          "type": "uint256"
        }
      ],
      "name": "approveReturnStock",
      "outputs": [],
      "payable": false,
      "stateMutability": "nonpayable",
      "type": "function"
    },
    {
      "constant": false,
      "inputs": [
        {
          "internalType": "uint256",
          "name": "_tokenId",
          "type": "uint256"
        }
      ],
      "name": "requestReturnStock",
      "outputs": [],
      "payable": false,
      "stateMutability": "nonpayable",
      "type": "function"
    },
    {
      "constant": true,
      "inputs": [
        {
          "internalType": "uint256",
          "name": "tokenId",
          "type": "uint256"
        }
      ],
      "name": "exists",
      "outputs": [
        {
          "internalType": "bool",
          "name": "",
          "type": "bool"
        }
      ],
      "payable": false,
      "stateMutability": "view",
      "type": "function"
    },
    {
      "constant": false,
      "inputs": [
        {
          "internalType": "string",
          "name": "baseURI",
          "type": "string"
        }
      ],
      "name": "setBaseURI",
      "outputs": [],
      "payable": false,
      "stateMutability": "nonpayable",
      "type": "function"
    },
    {
      "constant": false,
      "inputs": [
        {
          "internalType": "uint256",
          "name": "tokenId",
          "type": "uint256"
        },
        {
          "internalType": "string",
          "name": "_tokenURI",
          "type": "string"
        }
      ],
      "name": "setTokenURI",
      "outputs": [],
      "payable": false,
      "stateMutability": "nonpayable",
      "type": "function"
    },
    {
      "constant": true,
      "inputs": [],
      "name": "baseURI",
      "outputs": [
        {
          "internalType": "string",
          "name": "",
          "type": "string"
        }
      ],
      "payable": false,
      "stateMutability": "view",
      "type": "function"
    },
    {
      "constant": true,
      "inputs": [
        {
          "internalType": "uint256",
          "name": "tokenId",
          "type": "uint256"
        }
      ],
      "name": "tokenURI",
      "outputs": [
        {
          "internalType": "string",
          "name": "",
          "type": "string"
        }
      ],
      "payable": false,
      "stateMutability": "view",
      "type": "function"
    },
    {
      "constant": true,
      "inputs": [
        {
          "internalType": "address",
          "name": "_owner",
          "type": "address"
        }
      ],
      "name": "tokensOfOwner",
      "outputs": [
        {
          "internalType": "uint256[]",
          "name": "",
          "type": "uint256[]"
        }
      ],
      "payable": false,
      "stateMutability": "view",
      "type": "function"
    }
  ],
  "bytecode": "0x60806040526040518060400160405280600981526020017f546f6d6f546f6b656e0000000000000000000000000000000000000000000000815250600f90805190602001906200005192919062000474565b506040518060400160405280600381526020017f54544e0000000000000000000000000000000000000000000000000000000000815250601090805190602001906200009f92919062000474565b506040518060200160405280600081525060119080519060200190620000c792919062000474565b50348015620000d557600080fd5b50600f8054600181600116156101000203166002900480601f016020809104026020016040519081016040528092919081815260200182805460018160011615610100020316600290048015620001705780601f10620001445761010080835404028352916020019162000170565b820191906000526020600020905b8154815290600101906020018083116200015257829003601f168201915b505050505060108054600181600116156101000203166002900480601f0160208091040260200160405190810160405280929190818152602001828054600181600116156101000203166002900480156200020f5780601f10620001e3576101008083540402835291602001916200020f565b820191906000526020600020905b815481529060010190602001808311620001f157829003601f168201915b505050505081816200022e6301ffc9a760e01b6200036360201b60201c565b620002466380ac58cd60e01b6200036360201b60201c565b6200025e63780e9d6360e01b6200036360201b60201c565b81600990805190602001906200027692919062000474565b5080600a90805190602001906200028f92919062000474565b50620002a8635b5e139f60e01b6200036360201b60201c565b505050506000620002be6200046c60201b60201c565b905080600d60006101000a81548173ffffffffffffffffffffffffffffffffffffffff021916908373ffffffffffffffffffffffffffffffffffffffff1602179055508073ffffffffffffffffffffffffffffffffffffffff16600073ffffffffffffffffffffffffffffffffffffffff167f8be0079c531659141344cd1fd0a4f28419497f9722a3daafe3b4186f6b6457e060405160405180910390a35062000523565b63ffffffff60e01b817bffffffffffffffffffffffffffffffffffffffffffffffffffffffff1916141562000400576040517f08c379a000000000000000000000000000000000000000000000000000000000815260040180806020018281038252601c8152602001807f4552433136353a20696e76616c696420696e746572666163652069640000000081525060200191505060405180910390fd5b6001600080837bffffffffffffffffffffffffffffffffffffffffffffffffffffffff19167bffffffffffffffffffffffffffffffffffffffffffffffffffffffff1916815260200190815260200160002060006101000a81548160ff02191690831515021790555050565b600033905090565b828054600181600116156101000203166002900490600052602060002090601f016020900481019282601f10620004b757805160ff1916838001178555620004e8565b82800160010185558215620004e8579182015b82811115620004e7578251825591602001919060010190620004ca565b5b509050620004f79190620004fb565b5090565b6200052091905b808211156200051c57600081600090555060010162000502565b5090565b90565b613bcc80620005336000396000f3fe608060405234801561001057600080fd5b506004361061021c5760003560e01c806370a0823111610125578063aa3f3ea9116100ad578063d28d88521161007c578063d28d885214610ebc578063e985e9c514610f3f578063ebfa0e4014610fbb578063f229ba3e14611064578063f2fde38b146110a85761021c565b8063aa3f3ea914610c5f578063b09f126614610c8d578063b88d4fde14610d10578063c87b56dd14610e155761021c565b80638da5cb5b116100f45780638da5cb5b14610ac45780638f32d59b14610b0e57806395d89b4114610b305780639872b0d214610bb3578063a22cb46514610c0f5761021c565b806370a0823114610971578063715018a6146109c9578063755edd17146109d35780638462151c14610a2b5761021c565b80632f745c59116101a857806355f804b31161017757806355f804b31461075d5780635d42cf30146108185780636352211e146108465780636c0360eb146108b45780636ed6a848146109375761021c565b80632f745c591461060557806342842e0e146106675780634f558e79146106d55780634f6ccce71461071b5761021c565b80630b88e2dc116101ef5780630b88e2dc146103c5578063162094c41461040b57806318160ddd146104d057806323b872dd146104ee5780632b9d010d1461055c5761021c565b806301ffc9a71461022157806306fdde0314610286578063081812fc14610309578063095ea7b314610377575b600080fd5b61026c6004803603602081101561023757600080fd5b8101908080357bffffffffffffffffffffffffffffffffffffffffffffffffffffffff191690602001909291905050506110ec565b604051808215151515815260200191505060405180910390f35b61028e611153565b6040518080602001828103825283818151815260200191508051906020019080838360005b838110156102ce5780820151818401526020810190506102b3565b50505050905090810190601f1680156102fb5780820380516001836020036101000a031916815260200191505b509250505060405180910390f35b6103356004803603602081101561031f57600080fd5b81019080803590602001909291905050506111f5565b604051808273ffffffffffffffffffffffffffffffffffffffff1673ffffffffffffffffffffffffffffffffffffffff16815260200191505060405180910390f35b6103c36004803603604081101561038d57600080fd5b81019080803573ffffffffffffffffffffffffffffffffffffffff16906020019092919080359060200190929190505050611290565b005b6103f1600480360360208110156103db57600080fd5b8101908080359060200190929190505050611477565b604051808215151515815260200191505060405180910390f35b6104ce6004803603604081101561042157600080fd5b81019080803590602001909291908035906020019064010000000081111561044857600080fd5b82018360208201111561045a57600080fd5b8035906020019184600183028401116401000000008311171561047c57600080fd5b91908080601f016020809104026020016040519081016040528093929190818152602001838380828437600081840152601f19601f8201169050808301925050505050505091929192905050506114ac565b005b6104d86115b0565b6040518082815260200191505060405180910390f35b61055a6004803603606081101561050457600080fd5b81019080803573ffffffffffffffffffffffffffffffffffffffff169060200190929190803573ffffffffffffffffffffffffffffffffffffffff169060200190929190803590602001909291905050506115bd565b005b6105886004803603602081101561057257600080fd5b8101908080359060200190929190505050611633565b604051808773ffffffffffffffffffffffffffffffffffffffff1673ffffffffffffffffffffffffffffffffffffffff1681526020018681526020018561ffff1661ffff1681526020018460ff1660ff1681526020018360ff1660ff16815260200182151515158152602001965050505050505060405180910390f35b6106516004803603604081101561061b57600080fd5b81019080803573ffffffffffffffffffffffffffffffffffffffff169060200190929190803590602001909291905050506117db565b6040518082815260200191505060405180910390f35b6106d36004803603606081101561067d57600080fd5b81019080803573ffffffffffffffffffffffffffffffffffffffff169060200190929190803573ffffffffffffffffffffffffffffffffffffffff1690602001909291908035906020019092919050505061189a565b005b610701600480360360208110156106eb57600080fd5b81019080803590602001909291905050506118ba565b604051808215151515815260200191505060405180910390f35b6107476004803603602081101561073157600080fd5b81019080803590602001909291905050506118cc565b6040518082815260200191505060405180910390f35b6108166004803603602081101561077357600080fd5b810190808035906020019064010000000081111561079057600080fd5b8201836020820111156107a257600080fd5b803590602001918460018302840111640100000000831117156107c457600080fd5b91908080601f016020809104026020016040519081016040528093929190818152602001838380828437600081840152601f19601f82011690508083019250505050505050919291929050505061194c565b005b6108446004803603602081101561082e57600080fd5b8101908080359060200190929190505050611966565b005b6108726004803603602081101561085c57600080fd5b8101908080359060200190929190505050611a85565b604051808273ffffffffffffffffffffffffffffffffffffffff1673ffffffffffffffffffffffffffffffffffffffff16815260200191505060405180910390f35b6108bc611b4d565b6040518080602001828103825283818151815260200191508051906020019080838360005b838110156108fc5780820151818401526020810190506108e1565b50505050905090810190601f1680156109295780820380516001836020036101000a031916815260200191505b509250505060405180910390f35b61096f6004803603604081101561094d57600080fd5b8101908080359060200190929190803515159060200190929190505050611bef565b005b6109b36004803603602081101561098757600080fd5b81019080803573ffffffffffffffffffffffffffffffffffffffff169060200190929190505050611cf4565b6040518082815260200191505060405180910390f35b6109d1611dc9565b005b610a15600480360360208110156109e957600080fd5b81019080803573ffffffffffffffffffffffffffffffffffffffff169060200190929190505050611f04565b6040518082815260200191505060405180910390f35b610a6d60048036036020811015610a4157600080fd5b81019080803573ffffffffffffffffffffffffffffffffffffffff169060200190929190505050611f0f565b6040518080602001828103825283818151815260200191508051906020019060200280838360005b83811015610ab0578082015181840152602081019050610a95565b505050509050019250505060405180910390f35b610acc61202c565b604051808273ffffffffffffffffffffffffffffffffffffffff1673ffffffffffffffffffffffffffffffffffffffff16815260200191505060405180910390f35b610b16612056565b604051808215151515815260200191505060405180910390f35b610b386120b5565b6040518080602001828103825283818151815260200191508051906020019080838360005b83811015610b78578082015181840152602081019050610b5d565b50505050905090810190601f168015610ba55780820380516001836020036101000a031916815260200191505b509250505060405180910390f35b610bf560048036036020811015610bc957600080fd5b81019080803573ffffffffffffffffffffffffffffffffffffffff169060200190929190505050612157565b604051808215151515815260200191505060405180910390f35b610c5d60048036036040811015610c2557600080fd5b81019080803573ffffffffffffffffffffffffffffffffffffffff169060200190929190803515159060200190929190505050612227565b005b610c8b60048036036020811015610c7557600080fd5b81019080803590602001909291905050506123df565b005b610c9561242a565b6040518080602001828103825283818151815260200191508051906020019080838360005b83811015610cd5578082015181840152602081019050610cba565b50505050905090810190601f168015610d025780820380516001836020036101000a031916815260200191505b509250505060405180910390f35b610e1360048036036080811015610d2657600080fd5b81019080803573ffffffffffffffffffffffffffffffffffffffff169060200190929190803573ffffffffffffffffffffffffffffffffffffffff1690602001909291908035906020019092919080359060200190640100000000811115610d8d57600080fd5b820183602082011115610d9f57600080fd5b80359060200191846001830284011164010000000083111715610dc157600080fd5b91908080601f016020809104026020016040519081016040528093929190818152602001838380828437600081840152601f19601f8201169050808301925050505050505091929192905050506124c8565b005b610e4160048036036020811015610e2b57600080fd5b8101908080359060200190929190505050612540565b6040518080602001828103825283818151815260200191508051906020019080838360005b83811015610e81578082015181840152602081019050610e66565b50505050905090810190601f168015610eae5780820380516001836020036101000a031916815260200191505b509250505060405180910390f35b610ec4612742565b6040518080602001828103825283818151815260200191508051906020019080838360005b83811015610f04578082015181840152602081019050610ee9565b50505050905090810190601f168015610f315780820380516001836020036101000a031916815260200191505b509250505060405180910390f35b610fa160048036036040811015610f5557600080fd5b81019080803573ffffffffffffffffffffffffffffffffffffffff169060200190929190803573ffffffffffffffffffffffffffffffffffffffff1690602001909291905050506127e0565b604051808215151515815260200191505060405180910390f35b610fe760048036036020811015610fd157600080fd5b8101908080359060200190929190505050612874565b604051808773ffffffffffffffffffffffffffffffffffffffff1673ffffffffffffffffffffffffffffffffffffffff1681526020018681526020018561ffff1661ffff1681526020018460ff1660ff1681526020018360ff1660ff16815260200182151515158152602001965050505050505060405180910390f35b6110a66004803603602081101561107a57600080fd5b81019080803573ffffffffffffffffffffffffffffffffffffffff169060200190929190505050612912565b005b6110ea600480360360208110156110be57600080fd5b81019080803573ffffffffffffffffffffffffffffffffffffffff1690602001909291905050506129e7565b005b6000806000837bffffffffffffffffffffffffffffffffffffffffffffffffffffffff19167bffffffffffffffffffffffffffffffffffffffffffffffffffffffff1916815260200190815260200160002060009054906101000a900460ff169050919050565b606060098054600181600116156101000203166002900480601f0160208091040260200160405190810160405280929190818152602001828054600181600116156101000203166002900480156111eb5780601f106111c0576101008083540402835291602001916111eb565b820191906000526020600020905b8154815290600101906020018083116111ce57829003601f168201915b5050505050905090565b600061120082612a6d565b611255576040517f08c379a000000000000000000000000000000000000000000000000000000000815260040180806020018281038252602c815260200180613a3d602c913960400191505060405180910390fd5b6002600083815260200190815260200160002060009054906101000a900473ffffffffffffffffffffffffffffffffffffffff169050919050565b600061129b82611a85565b90508073ffffffffffffffffffffffffffffffffffffffff168373ffffffffffffffffffffffffffffffffffffffff161415611322576040517f08c379a0000000000000000000000000000000000000000000000000000000008152600401808060200182810382526021815260200180613aed6021913960400191505060405180910390fd5b8073ffffffffffffffffffffffffffffffffffffffff16611341612adf565b73ffffffffffffffffffffffffffffffffffffffff161480611370575061136f8161136a612adf565b6127e0565b5b6113c5576040517f08c379a00000000000000000000000000000000000000000000000000000000081526004018080602001828103825260388152602001806139b26038913960400191505060405180910390fd5b826002600084815260200190815260200160002060006101000a81548173ffffffffffffffffffffffffffffffffffffffff021916908373ffffffffffffffffffffffffffffffffffffffff160217905550818373ffffffffffffffffffffffffffffffffffffffff168273ffffffffffffffffffffffffffffffffffffffff167f8c5be1e5ebec7d5bd14f71427d1e84f3dd0314c0f7b2291e5b200ac8c7c3b92560405160405180910390a4505050565b60006014828154811061148657fe5b906000526020600020906003020160020160049054906101000a900460ff169050919050565b6114b4612056565b611526576040517f08c379a00000000000000000000000000000000000000000000000000000000081526004018080602001828103825260208152602001807f4f776e61626c653a2063616c6c6572206973206e6f7420746865206f776e657281525060200191505060405180910390fd5b61152f82612a6d565b611584576040517f08c379a000000000000000000000000000000000000000000000000000000000815260040180806020018281038252602c815260200180613a69602c913960400191505060405180910390fd5b806012600084815260200190815260200160002090805190602001906115ab92919061380d565b505050565b6000600780549050905090565b6115ce6115c8612adf565b82612ae7565b611623576040517f08c379a0000000000000000000000000000000000000000000000000000000008152600401808060200182810382526031815260200180613b0e6031913960400191505060405180910390fd5b61162e838383612bdb565b505050565b60008060008060008061164587612a6d565b6116b7576040517f08c379a00000000000000000000000000000000000000000000000000000000081526004018080602001828103825260118152602001807f4e6f6e6578697374656e7420746f6b656e00000000000000000000000000000081525060200191505060405180910390fd5b601487815481106116c457fe5b906000526020600020906003020160000160009054906101000a900473ffffffffffffffffffffffffffffffffffffffff166014888154811061170357fe5b9060005260206000209060030201600101546014898154811061172257fe5b906000526020600020906003020160020160009054906101000a900461ffff1660148a8154811061174f57fe5b906000526020600020906003020160020160029054906101000a900460ff1660148b8154811061177b57fe5b906000526020600020906003020160020160039054906101000a900460ff1660148c815481106117a757fe5b906000526020600020906003020160020160049054906101000a900460ff1695509550955095509550955091939550919395565b60006117e683611cf4565b821061183d576040517f08c379a000000000000000000000000000000000000000000000000000000000815260040180806020018281038252602b8152602001806138df602b913960400191505060405180910390fd5b600560008473ffffffffffffffffffffffffffffffffffffffff1673ffffffffffffffffffffffffffffffffffffffff168152602001908152602001600020828154811061188757fe5b9060005260206000200154905092915050565b6118b5838383604051806020016040528060008152506124c8565b505050565b60006118c582612a6d565b9050919050565b60006118d66115b0565b821061192d576040517f08c379a000000000000000000000000000000000000000000000000000000000815260040180806020018281038252602c815260200180613b3f602c913960400191505060405180910390fd5b6007828154811061193a57fe5b90600052602060002001549050919050565b806011908051906020019061196292919061380d565b5050565b8061196f612adf565b73ffffffffffffffffffffffffffffffffffffffff166014828154811061199257fe5b906000526020600020906003020160000160009054906101000a900473ffffffffffffffffffffffffffffffffffffffff1673ffffffffffffffffffffffffffffffffffffffff1614611a30576040517f08c379a000000000000000000000000000000000000000000000000000000000815260040180806020018281038252602d815260200180613b6b602d913960400191505060405180910390fd5b611a81611a3c83611a85565b60148481548110611a4957fe5b906000526020600020906003020160000160009054906101000a900473ffffffffffffffffffffffffffffffffffffffff16846115bd565b5050565b6000806001600084815260200190815260200160002060009054906101000a900473ffffffffffffffffffffffffffffffffffffffff169050600073ffffffffffffffffffffffffffffffffffffffff168173ffffffffffffffffffffffffffffffffffffffff161415611b44576040517f08c379a0000000000000000000000000000000000000000000000000000000008152600401808060200182810382526029815260200180613a146029913960400191505060405180910390fd5b80915050919050565b606060118054600181600116156101000203166002900480601f016020809104026020016040519081016040528092919081815260200182805460018160011615610100020316600290048015611be55780601f10611bba57610100808354040283529160200191611be5565b820191906000526020600020905b815481529060010190602001808311611bc857829003601f168201915b5050505050905090565b81611bf8612adf565b73ffffffffffffffffffffffffffffffffffffffff1660148281548110611c1b57fe5b906000526020600020906003020160000160009054906101000a900473ffffffffffffffffffffffffffffffffffffffff1673ffffffffffffffffffffffffffffffffffffffff1614611cb9576040517f08c379a000000000000000000000000000000000000000000000000000000000815260040180806020018281038252602d815260200180613b6b602d913960400191505060405180910390fd5b8160148481548110611cc757fe5b906000526020600020906003020160020160046101000a81548160ff021916908315150217905550505050565b60008073ffffffffffffffffffffffffffffffffffffffff168273ffffffffffffffffffffffffffffffffffffffff161415611d7b576040517f08c379a000000000000000000000000000000000000000000000000000000000815260040180806020018281038252602a8152602001806139ea602a913960400191505060405180910390fd5b611dc2600360008473ffffffffffffffffffffffffffffffffffffffff1673ffffffffffffffffffffffffffffffffffffffff168152602001908152602001600020612bff565b9050919050565b611dd1612056565b611e43576040517f08c379a00000000000000000000000000000000000000000000000000000000081526004018080602001828103825260208152602001807f4f776e61626c653a2063616c6c6572206973206e6f7420746865206f776e657281525060200191505060405180910390fd5b600073ffffffffffffffffffffffffffffffffffffffff16600d60009054906101000a900473ffffffffffffffffffffffffffffffffffffffff1673ffffffffffffffffffffffffffffffffffffffff167f8be0079c531659141344cd1fd0a4f28419497f9722a3daafe3b4186f6b6457e060405160405180910390a36000600d60006101000a81548173ffffffffffffffffffffffffffffffffffffffff021916908373ffffffffffffffffffffffffffffffffffffffff160217905550565b600060019050919050565b60606000611f1c83611cf4565b90506000811415611f60576000604051908082528060200260200182016040528015611f575781602001602082028038833980820191505090505b50915050612027565b606081604051908082528060200260200182016040528015611f915781602001602082028038833980820191505090505b5090506000611f9e6115b0565b905060008090506000600190505b82811161201e578673ffffffffffffffffffffffffffffffffffffffff16611fd382611a85565b73ffffffffffffffffffffffffffffffffffffffff1614156120115780848381518110611ffc57fe5b60200260200101818152505081806001019250505b8080600101915050611fac565b83955050505050505b919050565b6000600d60009054906101000a900473ffffffffffffffffffffffffffffffffffffffff16905090565b6000600d60009054906101000a900473ffffffffffffffffffffffffffffffffffffffff1673ffffffffffffffffffffffffffffffffffffffff16612099612adf565b73ffffffffffffffffffffffffffffffffffffffff1614905090565b6060600a8054600181600116156101000203166002900480601f01602080910402602001604051908101604052809291908181526020018280546001816001161561010002031660029004801561214d5780601f106121225761010080835404028352916020019161214d565b820191906000526020600020905b81548152906001019060200180831161213057829003601f168201915b5050505050905090565b6000612161612056565b6121d3576040517f08c379a00000000000000000000000000000000000000000000000000000000081526004018080602001828103825260208152602001807f4f776e61626c653a2063616c6c6572206973206e6f7420746865206f776e657281525060200191505060405180910390fd5b601360008373ffffffffffffffffffffffffffffffffffffffff1673ffffffffffffffffffffffffffffffffffffffff16815260200190815260200160002060009054906101000a900460ff169050919050565b61222f612adf565b73ffffffffffffffffffffffffffffffffffffffff168273ffffffffffffffffffffffffffffffffffffffff1614156122d0576040517f08c379a00000000000000000000000000000000000000000000000000000000081526004018080602001828103825260198152602001807f4552433732313a20617070726f766520746f2063616c6c65720000000000000081525060200191505060405180910390fd5b80600460006122dd612adf565b73ffffffffffffffffffffffffffffffffffffffff1673ffffffffffffffffffffffffffffffffffffffff16815260200190815260200160002060008473ffffffffffffffffffffffffffffffffffffffff1673ffffffffffffffffffffffffffffffffffffffff16815260200190815260200160002060006101000a81548160ff0219169083151502179055508173ffffffffffffffffffffffffffffffffffffffff1661238a612adf565b73ffffffffffffffffffffffffffffffffffffffff167f17307eab39ab6107e8899845ad3d59bd9653f200f220920489ca2b5937696c3183604051808215151515815260200191505060405180910390a35050565b612427601482815481106123ef57fe5b906000526020600020906003020160000160009054906101000a900473ffffffffffffffffffffffffffffffffffffffff1682611290565b50565b60108054600181600116156101000203166002900480601f0160208091040260200160405190810160405280929190818152602001828054600181600116156101000203166002900480156124c05780601f10612495576101008083540402835291602001916124c0565b820191906000526020600020905b8154815290600101906020018083116124a357829003601f168201915b505050505081565b6124d96124d3612adf565b83612ae7565b61252e576040517f08c379a0000000000000000000000000000000000000000000000000000000008152600401808060200182810382526031815260200180613b0e6031913960400191505060405180910390fd5b61253a84848484612c0d565b50505050565b606061254b82612a6d565b6125a0576040517f08c379a000000000000000000000000000000000000000000000000000000000815260040180806020018281038252602f815260200180613abe602f913960400191505060405180910390fd5b6060601260008481526020019081526020016000208054600181600116156101000203166002900480601f0160208091040260200160405190810160405280929190818152602001828054600181600116156101000203166002900480156126495780601f1061261e57610100808354040283529160200191612649565b820191906000526020600020905b81548152906001019060200180831161262c57829003601f168201915b50505050509050600081511415612672576040518060200160405280600081525091505061273d565b60118160405160200180838054600181600116156101000203166002900480156126d35780601f106126b15761010080835404028352918201916126d3565b820191906000526020600020905b8154815290600101906020018083116126bf575b505082805190602001908083835b6020831061270457805182526020820191506020810190506020830392506126e1565b6001836020036101000a038019825116818451168082178552505050505050905001925050506040516020818303038152906040529150505b919050565b600f8054600181600116156101000203166002900480601f0160208091040260200160405190810160405280929190818152602001828054600181600116156101000203166002900480156127d85780601f106127ad576101008083540402835291602001916127d8565b820191906000526020600020905b8154815290600101906020018083116127bb57829003601f168201915b505050505081565b6000600460008473ffffffffffffffffffffffffffffffffffffffff1673ffffffffffffffffffffffffffffffffffffffff16815260200190815260200160002060008373ffffffffffffffffffffffffffffffffffffffff1673ffffffffffffffffffffffffffffffffffffffff16815260200190815260200160002060009054906101000a900460ff16905092915050565b6014818154811061288157fe5b90600052602060002090600302016000915090508060000160009054906101000a900473ffffffffffffffffffffffffffffffffffffffff16908060010154908060020160009054906101000a900461ffff16908060020160029054906101000a900460ff16908060020160039054906101000a900460ff16908060020160049054906101000a900460ff16905086565b61291a612056565b61298c576040517f08c379a00000000000000000000000000000000000000000000000000000000081526004018080602001828103825260208152602001807f4f776e61626c653a2063616c6c6572206973206e6f7420746865206f776e657281525060200191505060405180910390fd5b6001601360008373ffffffffffffffffffffffffffffffffffffffff1673ffffffffffffffffffffffffffffffffffffffff16815260200190815260200160002060006101000a81548160ff02191690831515021790555050565b6129ef612056565b612a61576040517f08c379a00000000000000000000000000000000000000000000000000000000081526004018080602001828103825260208152602001807f4f776e61626c653a2063616c6c6572206973206e6f7420746865206f776e657281525060200191505060405180910390fd5b612a6a81612c7f565b50565b6000806001600084815260200190815260200160002060009054906101000a900473ffffffffffffffffffffffffffffffffffffffff169050600073ffffffffffffffffffffffffffffffffffffffff168173ffffffffffffffffffffffffffffffffffffffff161415915050919050565b600033905090565b6000612af282612a6d565b612b47576040517f08c379a000000000000000000000000000000000000000000000000000000000815260040180806020018281038252602c815260200180613986602c913960400191505060405180910390fd5b6000612b5283611a85565b90508073ffffffffffffffffffffffffffffffffffffffff168473ffffffffffffffffffffffffffffffffffffffff161480612bc157508373ffffffffffffffffffffffffffffffffffffffff16612ba9846111f5565b73ffffffffffffffffffffffffffffffffffffffff16145b80612bd25750612bd181856127e0565b5b91505092915050565b612be6838383612dc5565b612bf08382613020565b612bfa82826131be565b505050565b600081600001549050919050565b612c18848484612bdb565b612c2484848484613285565b612c79576040517f08c379a000000000000000000000000000000000000000000000000000000000815260040180806020018281038252603281526020018061390a6032913960400191505060405180910390fd5b50505050565b600073ffffffffffffffffffffffffffffffffffffffff168173ffffffffffffffffffffffffffffffffffffffff161415612d05576040517f08c379a000000000000000000000000000000000000000000000000000000000815260040180806020018281038252602681526020018061393c6026913960400191505060405180910390fd5b8073ffffffffffffffffffffffffffffffffffffffff16600d60009054906101000a900473ffffffffffffffffffffffffffffffffffffffff1673ffffffffffffffffffffffffffffffffffffffff167f8be0079c531659141344cd1fd0a4f28419497f9722a3daafe3b4186f6b6457e060405160405180910390a380600d60006101000a81548173ffffffffffffffffffffffffffffffffffffffff021916908373ffffffffffffffffffffffffffffffffffffffff16021790555050565b8273ffffffffffffffffffffffffffffffffffffffff16612de582611a85565b73ffffffffffffffffffffffffffffffffffffffff1614612e51576040517f08c379a0000000000000000000000000000000000000000000000000000000008152600401808060200182810382526029815260200180613a956029913960400191505060405180910390fd5b600073ffffffffffffffffffffffffffffffffffffffff168273ffffffffffffffffffffffffffffffffffffffff161415612ed7576040517f08c379a00000000000000000000000000000000000000000000000000000000081526004018080602001828103825260248152602001806139626024913960400191505060405180910390fd5b612ee0816135c1565b612f27600360008573ffffffffffffffffffffffffffffffffffffffff1673ffffffffffffffffffffffffffffffffffffffff16815260200190815260200160002061367f565b612f6e600360008473ffffffffffffffffffffffffffffffffffffffff1673ffffffffffffffffffffffffffffffffffffffff1681526020019081526020016000206136a2565b816001600083815260200190815260200160002060006101000a81548173ffffffffffffffffffffffffffffffffffffffff021916908373ffffffffffffffffffffffffffffffffffffffff160217905550808273ffffffffffffffffffffffffffffffffffffffff168473ffffffffffffffffffffffffffffffffffffffff167fddf252ad1be2c89b69c2b068fc378daa952ba7f163c4a11628f55a4df523b3ef60405160405180910390a4505050565b60006130786001600560008673ffffffffffffffffffffffffffffffffffffffff1673ffffffffffffffffffffffffffffffffffffffff168152602001908152602001600020805490506136b890919063ffffffff16565b9050600060066000848152602001908152602001600020549050818114613165576000600560008673ffffffffffffffffffffffffffffffffffffffff1673ffffffffffffffffffffffffffffffffffffffff16815260200190815260200160002083815481106130e557fe5b9060005260206000200154905080600560008773ffffffffffffffffffffffffffffffffffffffff1673ffffffffffffffffffffffffffffffffffffffff168152602001908152602001600020838154811061313d57fe5b9060005260206000200181905550816006600083815260200190815260200160002081905550505b600560008573ffffffffffffffffffffffffffffffffffffffff1673ffffffffffffffffffffffffffffffffffffffff1681526020019081526020016000208054809190600190036131b7919061388d565b5050505050565b600560008373ffffffffffffffffffffffffffffffffffffffff1673ffffffffffffffffffffffffffffffffffffffff168152602001908152602001600020805490506006600083815260200190815260200160002081905550600560008373ffffffffffffffffffffffffffffffffffffffff1673ffffffffffffffffffffffffffffffffffffffff1681526020019081526020016000208190806001815401808255809150509060018203906000526020600020016000909192909190915055505050565b60006132a68473ffffffffffffffffffffffffffffffffffffffff16613702565b6132b357600190506135b9565b600060608573ffffffffffffffffffffffffffffffffffffffff168673ffffffffffffffffffffffffffffffffffffffff1663150b7a02905060e01b6132f7612adf565b898888604051602401808573ffffffffffffffffffffffffffffffffffffffff1673ffffffffffffffffffffffffffffffffffffffff1681526020018473ffffffffffffffffffffffffffffffffffffffff1673ffffffffffffffffffffffffffffffffffffffff16815260200183815260200180602001828103825283818151815260200191508051906020019080838360005b838110156133a757808201518184015260208101905061338c565b50505050905090810190601f1680156133d45780820380516001836020036101000a031916815260200191505b5095505050505050604051602081830303815290604052907bffffffffffffffffffffffffffffffffffffffffffffffffffffffff19166020820180517bffffffffffffffffffffffffffffffffffffffffffffffffffffffff83818316178352505050506040518082805190602001908083835b6020831061346c5780518252602082019150602081019050602083039250613449565b6001836020036101000a0380198251168184511680821785525050505050509050019150506000604051808303816000865af19150503d80600081146134ce576040519150601f19603f3d011682016040523d82523d6000602084013e6134d3565b606091505b509150915081613541576000815111156134f05780518082602001fd5b6040517f08c379a000000000000000000000000000000000000000000000000000000000815260040180806020018281038252603281526020018061390a6032913960400191505060405180910390fd5b600081806020019051602081101561355857600080fd5b8101908080519060200190929190505050905063150b7a0260e01b7bffffffffffffffffffffffffffffffffffffffffffffffffffffffff1916817bffffffffffffffffffffffffffffffffffffffffffffffffffffffff19161493505050505b949350505050565b600073ffffffffffffffffffffffffffffffffffffffff166002600083815260200190815260200160002060009054906101000a900473ffffffffffffffffffffffffffffffffffffffff1673ffffffffffffffffffffffffffffffffffffffff161461367c5760006002600083815260200190815260200160002060006101000a81548173ffffffffffffffffffffffffffffffffffffffff021916908373ffffffffffffffffffffffffffffffffffffffff1602179055505b50565b613697600182600001546136b890919063ffffffff16565b816000018190555050565b6001816000016000828254019250508190555050565b60006136fa83836040518060400160405280601e81526020017f536166654d6174683a207375627472616374696f6e206f766572666c6f77000081525061374d565b905092915050565b60008060007fc5d2460186f7233c927e7db2dcc703c0e500b653ca82273b7bfad8045d85a47060001b9050833f915080821415801561374457506000801b8214155b92505050919050565b60008383111582906137fa576040517f08c379a00000000000000000000000000000000000000000000000000000000081526004018080602001828103825283818151815260200191508051906020019080838360005b838110156137bf5780820151818401526020810190506137a4565b50505050905090810190601f1680156137ec5780820380516001836020036101000a031916815260200191505b509250505060405180910390fd5b5060008385039050809150509392505050565b828054600181600116156101000203166002900490600052602060002090601f016020900481019282601f1061384e57805160ff191683800117855561387c565b8280016001018555821561387c579182015b8281111561387b578251825591602001919060010190613860565b5b50905061388991906138b9565b5090565b8154818355818111156138b4578183600052602060002091820191016138b391906138b9565b5b505050565b6138db91905b808211156138d75760008160009055506001016138bf565b5090565b9056fe455243373231456e756d657261626c653a206f776e657220696e646578206f7574206f6620626f756e64734552433732313a207472616e7366657220746f206e6f6e20455243373231526563656976657220696d706c656d656e7465724f776e61626c653a206e6577206f776e657220697320746865207a65726f20616464726573734552433732313a207472616e7366657220746f20746865207a65726f20616464726573734552433732313a206f70657261746f7220717565727920666f72206e6f6e6578697374656e7420746f6b656e4552433732313a20617070726f76652063616c6c6572206973206e6f74206f776e6572206e6f7220617070726f76656420666f7220616c6c4552433732313a2062616c616e636520717565727920666f7220746865207a65726f20616464726573734552433732313a206f776e657220717565727920666f72206e6f6e6578697374656e7420746f6b656e4552433732313a20617070726f76656420717565727920666f72206e6f6e6578697374656e7420746f6b656e4552433732314d657461646174613a2055524920736574206f66206e6f6e6578697374656e7420746f6b656e4552433732313a207472616e73666572206f6620746f6b656e2074686174206973206e6f74206f776e4552433732314d657461646174613a2055524920717565727920666f72206e6f6e6578697374656e7420746f6b656e4552433732313a20617070726f76616c20746f2063757272656e74206f776e65724552433732313a207472616e736665722063616c6c6572206973206e6f74206f776e6572206e6f7220617070726f766564455243373231456e756d657261626c653a20676c6f62616c20696e646578206f7574206f6620626f756e64734f6e6c79206f776e657220686f74656c3a2063616c6c6572206973206e6f74206f776e6572206f6620726f6f6da265627a7a723158208e822c5f7725a81002753bcb52b82a83605a003335845acb86e567bdf9313da464736f6c63430005100032",
  "source": "pragma solidity ^0.5.0;\n\nimport '@openzeppelin/contracts/token/ERC721/ERC721Full.sol';\nimport '@openzeppelin/contracts/ownership/Ownable.sol';\n\n/**\n * @title BookingToken\n */\ncontract BookingToken is ERC721Full, Ownable {\n  uint256 private _currentTokenId;\n  string public _name = 'TomoToken';\n  string public _symbol = 'TTN';\n  string private _baseURI = '';\n  mapping(uint256 => string) private _tokenURIs;\n\n  mapping (address => bool) private _hotels;\n  struct Stock{\n    address hotel;\n    uint256 roomId;\n    uint16 year;\n    uint8 month;\n    uint8 day;\n    bool status;\n  }\n  Stock[] public _stocks;\n  // mapping(uint => Stock) private _stocks;\n  // mapping(uint => mapping(uint => mapping(uint => uint256[]))) private _stockDate;\n\n  constructor() ERC721Full(_name, _symbol) public {}\n\n  /**\n    * @dev Mints a token to an address with a tokenURI.\n    * @param _to address of the future owner of the token\n    */\n  function mintTo(\n    address _to\n    // uint256 _roomId,\n    // uint16 _year,\n    // uint8 _month,\n    // uint8 _day\n  ) public view returns(uint256 tokenId){\n    // Stock memory newStock = Stock(_to, _roomId, _year, _month, _day, true);\n    // uint256 id = _stocks.push(newStock) - 1;\n    // _mint(_to, id);\n    // _incrementTokenId();\n\n    return 1;\n  }\n\n  /**\n    * @dev calculates the next token ID based on value of _currentTokenId\n    * @return uint256 for the next token ID\n    */\n  function _getNextTokenId() private view returns (uint256) {\n    return _currentTokenId.add(1);\n  }\n\n  /**\n    * @dev increments the value of _currentTokenId\n    */\n  function _incrementTokenId() private  {\n    _currentTokenId++;\n  }\n\n  function getTokenInformation(uint256 tokenId) external view returns(\n    address hotel,\n    uint256 roomId,\n    uint16 year,\n    uint8 month,\n    uint8 day,\n    bool status\n  ){\n    require(_exists(tokenId), \"Nonexistent token\");\n\n    return (\n      _stocks[tokenId].hotel,\n      _stocks[tokenId].roomId,\n      _stocks[tokenId].year,\n      _stocks[tokenId].month,\n      _stocks[tokenId].day,\n      _stocks[tokenId].status\n    );\n  }\n\n  function registHotelAddress(address hotelAddress) external onlyOwner {\n    _hotels[hotelAddress] = true;\n  }\n\n  function checkHotelAddress(address hotelAddress) external view onlyOwner returns(bool) {\n    return _hotels[hotelAddress];\n  }\n\n  function changeStockStatus(uint256 _tokenId, bool _status) external onlyRoomOwner(_tokenId) {\n    _stocks[_tokenId].status = _status;\n  }\n\n  function getStockStatus(uint256 _tokenId) external view returns(bool) {\n    return _stocks[_tokenId].status;\n  }\n\n  function approveReturnStock(uint256 _tokenId) external {\n    approve(_stocks[_tokenId].hotel, _tokenId);\n  }\n\n  function requestReturnStock(uint256 _tokenId) external onlyRoomOwner(_tokenId) {\n    transferFrom(ownerOf(_tokenId), _stocks[_tokenId].hotel, _tokenId);\n  }\n\n  function exists(uint256 tokenId) external view returns(bool) {\n    return _exists(tokenId);\n  }\n\n  function setBaseURI(string memory baseURI) public {\n        _baseURI = baseURI;\n    }\n\n  function setTokenURI(uint256 tokenId, string memory _tokenURI) public onlyOwner {\n    require(_exists(tokenId), \"ERC721Metadata: URI set of nonexistent token\");\n    _tokenURIs[tokenId] = _tokenURI;\n  }\n\n  function baseURI() external view returns (string memory) {\n    return _baseURI;\n\n  }\n\n  function tokenURI(uint256 tokenId) external view returns (string memory) {\n    require(_exists(tokenId), \"ERC721Metadata: URI query for nonexistent token\");\n\n    string memory _tokenURI = _tokenURIs[tokenId];\n    if (bytes(_tokenURI).length == 0) {\n        return \"\";\n    } else {\n        return string(abi.encodePacked(_baseURI, _tokenURI));\n    }\n  }\n\n  // function burn(uint256 _tokenId) external {\n  //   _burn(msg.sender, _tokenId);\n  // }\n\n  function tokensOfOwner(address _owner) external view returns (uint256[] memory) {\n    uint256 balance = balanceOf(_owner);\n\n    if (balance == 0) {\n      return new uint256[](0);\n    }\n\n    uint256[] memory result = new uint256[](balance);\n    uint256 maxTokenId = totalSupply();\n    uint256 idx = 0;\n\n    uint256 tokenId;\n    for (tokenId = 1; tokenId <= maxTokenId; tokenId++) {\n      if (ownerOf(tokenId) == _owner) {\n        result[idx] = tokenId;\n        idx++;\n      }\n    }\n\n    return result;\n  }\n\n  /**\n  * @dev Throws if called by any account other than hotels.\n  */\n  modifier onlyHotel() {\n    require(_hotels[_msgSender()], \"Only hotel: caller is not hotel account\");\n    _;\n  }\n\n  modifier onlyRoomOwner(uint256 _tokenId) {\n    require(_stocks[_tokenId].hotel == _msgSender(), \"Only owner hotel: caller is not owner of room\");\n    _;\n  }\n\n}\n",
  "sourcePath": "/Users/furutatomohiro/Documents/Program/GBC/DAPP2/GBC_DAPP2_Final_Assignment/contracts/BookingToken.sol",
  "compiler": {
    "name": "solc",
    "version": "0.5.16+commit.9c3226ce.Emscripten.clang"
  },
  "schemaVersion": "3.0.21",
  "updatedAt": "2020-04-21T21:34:27.674Z",
  "devdoc": {
    "methods": {
      "approve(address,uint256)": {
        "details": "Approves another address to transfer the given token ID The zero address indicates there is no approved address. There can only be one approved address per token at a given time. Can only be called by the token owner or an approved operator.",
        "params": {
          "to": "address to be approved for the given token ID",
          "tokenId": "uint256 ID of the token to be approved"
        }
      },
      "balanceOf(address)": {
        "details": "Gets the balance of the specified address.",
        "params": {
          "owner": "address to query the balance of"
        },
        "return": "uint256 representing the amount owned by the passed address"
      },
      "getApproved(uint256)": {
        "details": "Gets the approved address for a token ID, or zero if no address set Reverts if the token ID does not exist.",
        "params": {
          "tokenId": "uint256 ID of the token to query the approval of"
        },
        "return": "address currently approved for the given token ID"
      },
      "isApprovedForAll(address,address)": {
        "details": "Tells whether an operator is approved by a given owner.",
        "params": {
          "operator": "operator address which you want to query the approval of",
          "owner": "owner address which you want to query the approval of"
        },
        "return": "bool whether the given operator is approved by the given owner"
      },
      "isOwner()": {
        "details": "Returns true if the caller is the current owner."
      },
      "mintTo(address)": {
        "details": "Mints a token to an address with a tokenURI.",
        "params": {
          "_to": "address of the future owner of the token"
        }
      },
      "name()": {
        "details": "Gets the token name.",
        "return": "string representing the token name"
      },
      "owner()": {
        "details": "Returns the address of the current owner."
      },
      "ownerOf(uint256)": {
        "details": "Gets the owner of the specified token ID.",
        "params": {
          "tokenId": "uint256 ID of the token to query the owner of"
        },
        "return": "address currently marked as the owner of the given token ID"
      },
      "renounceOwnership()": {
        "details": "Leaves the contract without owner. It will not be possible to call `onlyOwner` functions anymore. Can only be called by the current owner.     * NOTE: Renouncing ownership will leave the contract without an owner, thereby removing any functionality that is only available to the owner."
      },
      "safeTransferFrom(address,address,uint256)": {
        "details": "Safely transfers the ownership of a given token ID to another address If the target address is a contract, it must implement {IERC721Receiver-onERC721Received}, which is called upon a safe transfer, and return the magic value `bytes4(keccak256(\"onERC721Received(address,address,uint256,bytes)\"))`; otherwise, the transfer is reverted. Requires the msg.sender to be the owner, approved, or operator",
        "params": {
          "from": "current owner of the token",
          "to": "address to receive the ownership of the given token ID",
          "tokenId": "uint256 ID of the token to be transferred"
        }
      },
      "safeTransferFrom(address,address,uint256,bytes)": {
        "details": "Safely transfers the ownership of a given token ID to another address If the target address is a contract, it must implement {IERC721Receiver-onERC721Received}, which is called upon a safe transfer, and return the magic value `bytes4(keccak256(\"onERC721Received(address,address,uint256,bytes)\"))`; otherwise, the transfer is reverted. Requires the _msgSender() to be the owner, approved, or operator",
        "params": {
          "_data": "bytes data to send along with a safe transfer check",
          "from": "current owner of the token",
          "to": "address to receive the ownership of the given token ID",
          "tokenId": "uint256 ID of the token to be transferred"
        }
      },
      "setApprovalForAll(address,bool)": {
        "details": "Sets or unsets the approval of a given operator An operator is allowed to transfer all tokens of the sender on their behalf.",
        "params": {
          "approved": "representing the status of the approval to be set",
          "to": "operator address to set the approval"
        }
      },
      "supportsInterface(bytes4)": {
        "details": "See {IERC165-supportsInterface}.     * Time complexity O(1), guaranteed to always use less than 30 000 gas."
      },
      "symbol()": {
        "details": "Gets the token symbol.",
        "return": "string representing the token symbol"
      },
      "tokenByIndex(uint256)": {
        "details": "Gets the token ID at a given index of all the tokens in this contract Reverts if the index is greater or equal to the total number of tokens.",
        "params": {
          "index": "uint256 representing the index to be accessed of the tokens list"
        },
        "return": "uint256 token ID at the given index of the tokens list"
      },
      "tokenOfOwnerByIndex(address,uint256)": {
        "details": "Gets the token ID at a given index of the tokens list of the requested owner.",
        "params": {
          "index": "uint256 representing the index to be accessed of the requested tokens list",
          "owner": "address owning the tokens list to be accessed"
        },
        "return": "uint256 token ID at the given index of the tokens list owned by the requested address"
      },
      "totalSupply()": {
        "details": "Gets the total amount of tokens stored by the contract.",
        "return": "uint256 representing the total amount of tokens"
      },
      "transferFrom(address,address,uint256)": {
        "details": "Transfers the ownership of a given token ID to another address. Usage of this method is discouraged, use {safeTransferFrom} whenever possible. Requires the msg.sender to be the owner, approved, or operator.",
        "params": {
          "from": "current owner of the token",
          "to": "address to receive the ownership of the given token ID",
          "tokenId": "uint256 ID of the token to be transferred"
        }
      },
      "transferOwnership(address)": {
        "details": "Transfers ownership of the contract to a new account (`newOwner`). Can only be called by the current owner."
      }
    },
    "title": "BookingToken"
  },
  "userdoc": {
    "methods": {}
  }
}